:020000040800F2
:10000000B80E002039030008F56B00088F3A00088D
:10001000F36B0008311D000829760008000000007D
:10002000000000000000000000000000BB6D0008A0
:10003000331D000800000000176C0008996F0008CD
:100040005303000853030008530300085303000838
:100050005303000853030008530300085303000828
:100060005303000853030008351D0008530300081C
:100070005303000853030008530300085303000808
:1000800053030008530300085303000853030008F8
:1000900053030008530300085303000853030008E8
:1000A00053030008530300085303000853030008D8
:1000B0005303000853030008F16F000853030008BE
:1000C00053030008530300085303000853030008B8
:1000D00053030008D974000853030008457500084D
:1000E0005303000853030008530300085303000898
:1000F0005303000853030008530300085303000888
:100100005303000853030008530300085303000877
:10011000530300085303000853030008FD6F000851
:100120005303000853030008530300085303000857
:100130005303000853030008530300085303000847
:100140005303000853030008530300085303000837
:100150005303000853030008530300085303000827
:100160005303000853030008530300085303000817
:100170005303000853030008530300080000000065
:1001800053030008530300085303000853030008F7
:1001900053030008530300085303000853030008E7
:1001A00053030008530300085303000800F002F84B
:1001B00000F0B2F80AA090E8000C82448344AAF14F
:1001C0000107DA4501D100F0A7F8AFF2090EBAE84D
:1001D0000F0013F0010F18BFFB1A43F0010318477B
:1001E0004CD300006CD300000A444FF0000C10F810
:1001F000013B13F0070408BF10F8014B1D1108BFA5
:1002000010F8015B641E05D010F8016B641E01F844
:10021000016BF9D113F0080F1EBF10F8014BAD1C94
:100220000C1B09D16D1E58BF01F801CBFAD505E0B2
:1002300014F8016B01F8016B6D1EF9D59142D6D30C
:10024000704700000023002400250026103A28BF34
:1002500078C1FBD8520728BF30C148BF0B60704738
:100260006E2900F05683702900F07181662908F02C
:10027000C284652908F0BF84672908F0BC8461291D
:1002800008F0BB8403681B0A28BF41F0800169297C
:1002900000F0E280642900F0DF80752900F0DC8046
:1002A0006F2900F04F84782900F03D81E92900F0A2
:1002B000E983E42900F0E683F52900F0E383EF29E0
:1002C00000F04C84F82900F03C810368DB0928BF6A
:1002D00041F08001632900F05883732900F05D83A9
:1002E000E32901F01F80F32901F0248000207047EA
:1002F0001FB508F07BFC01F077F804000020002116
:1003000008F020FB401C60600020002108F004FB86
:10031000E0601FBD10B510BD01F038F81146FFF7C1
:10032000E7FF07F013FA01F011F903B4FFF7F2FF4A
:1003300003BC07F0CEF90000094880470948004790
:10034000FEE7FEE7FEE7FEE7FEE7FEE7FEE7FEE785
:10035000FEE7FEE704480549054A064B70470000E2
:100360009D6F0008AD010008B8080020B80E0020FD
:10037000B80A0020B80A0020704700001CB50C46DF
:10038000064B7B4469460090204600F0DCFA0446A8
:100390000020694600F0EAFA20461CBDE70500008F
:1003A0000FB4044910B503AA029800F0FBFA10BC80
:1003B0005DF814FB2C00002070B5044685690068C8
:1003C000C10601D5302600E02026C00707D070BD49
:1003D000D4E9012130469047206A401C20626D1EFE
:1003E000F6D570BD70B5044685690078C00707D1A1
:1003F00070BDD4E9012120209047206A401C206272
:100400006D1EF6D570BD70B50C460546012A05D0A7
:100410002878800600D5EA69002302E0012305E080
:100420005B1C934202D2E05C0028F9D1A869E6186F
:10043000C01AA861286A184428622846FFF7BCFF42
:1004400004E0D5E9012114F8010B9047B442F8D338
:100450002846FFF7C7FF70BD2DE9F041064600248E
:1004600010687529314616A510D000F0E7F900286C
:1004700002DA404213A507E031688A0701D512A5C8
:1004800002E0490704D511A5012401E000F0DFF9DD
:1004900000210A2206F1240709E0B0FBF2FCB0FBC0
:1004A000F2F302FB1C00303078541846491C002837
:1004B000F3D123462A463046BDE8F04100F0D0B9DA
:1004C000000000002D0000002B00000020000000B4
:1004D000F0B40D460188090502D5214C7C4402E0A8
:1004E0001F4C7C440E34002100F1240608E002F089
:1004F0000F071209E75D42EA03721B097754491C92
:1005000052EA0307F3D102780023120704D5702DB5
:1005100006D009B1022311342246F0BC00F0A0B984
:1005200001231034F8E770B504460D4621461068E3
:1005300000F08DF9024629462046BDE870400023B0
:10054000C6E7D21D22F00703D3E90023C0E7036802
:10055000126843F0200303600823C3610023B7E758
:100560006ECE00002DE9F05F894604464FF0000A88
:10057000DFF874B1FB44C0F820A02046E16888474A
:10058000002874D0252806D0D4E901219047206A9C
:10059000401C2062F1E700265F462046E16888475C
:1005A0002028054607DB312D05D2781910F8200CDC
:1005B00008B10643F1E7B00701D526F00406C4F8F8
:1005C0001CA00027C4F818A02A2D09D0284607F03F
:1005D00079F838B304EB8708303DC8F8185019E0B3
:1005E00059F8041B204604EB87029161E1688847B3
:1005F000012F054618D1E069002820DA26F02006F0
:100600001DE0D8F8180000EB800005EB4000303802
:10061000C8F818002046E1688847054607F052F8F8
:100620000028EED1012F0AD02E2D08D12046E168F6
:1006300088477F1C0546022F46F02006C4DBA069D0
:10064000002803DA404246F00106A061F00701D01D
:1006500026F010066C2D0BD0682D09D04C2D39D00A
:100660006A2D35D0742D35D07A2D33D016E038E090
:10067000E1682F4620468847B842054609D16C2FCD
:1006800026D04FF48060E16806432046884705463F
:1006900004E06C2F1AD04FF4807006430DB3A5F11F
:1006A0004100192802D8203546F400664A462946FA
:1006B000204626604E46FFF7D3FD80B101280BD0BF
:1006C000F61D26F0070000F1080956E74020E4E790
:1006D0008020D8E70020D6E706F104094DE7284638
:1006E00052E7206ABDE8F09FFECD000030B5054618
:1006F0000B462A4613F8014B12F8010B08B1A04231
:10070000F8D01CB1002802D06D1CF1E7284630BD9E
:1007100010B5431C02E010F8011B71B18107FAD13A
:100720004FF0013202C88C1A8C4314EAC211F9D07E
:10073000C01A0A0603D0C01E10BDC01A10BD0A049C
:1007400001D0801E10BD0902FCD0401E10BD10B5A6
:10075000203AC0F00B80B1E81850203AA0E81850B9
:10076000B1E81850A0E81850BFF4F5AF5FEA027C7A
:1007700024BFB1E81850A0E8185044BF18C918C0E9
:10078000BDE810405FEA827C24BF51F8043B40F88A
:10079000043B08BF7047D20728BF31F8023B48BF6F
:1007A00011F8012B28BF20F8023B48BF00F8012BAD
:1007B000704700004FF0013C50F8042B51F8043B07
:1007C0009A4221D1A2EB0C03934313EACC1317D125
:1007D00050F8042B51F8043B9A4215D1A2EB0C03BC
:1007E000934313EACC130BD150F8042B51F8043B7C
:1007F0009A4209D1A2EB0C03934313EACC13DBD04A
:100800004FF00000704700BFD01A01BAB1FA81F171
:1008100001F0180122FA01F0CB40C1F12001DBB256
:10082000C0B2C01A2CFA01F3D11A914311EAC311D4
:10083000E6D17047704770477047704709684A05AE
:1008400001D540B27047C905FCD500B270470968B0
:100850004A0501D5C0B27047C905FCD580B27047C2
:100860002DE9F0470D4699469246044600F12408CA
:100870000168880604D5E06921F01001216000E0DC
:100880000120A84201DD471B00E00027A1697A1979
:1008900002EB0900081AA0612078C00602D42046A5
:1008A000FFF78AFD002608E0D4E901211AF80600C6
:1008B0009047206A401C761C20624E45F4DB20786D
:1008C000C0060AD52046FFF777FD06E0D4E90121EE
:1008D00030209047206A401C2062381EA7F1010793
:1008E000F4DC07E0D4E9012118F805009047206AFC
:1008F000401C2062281EA5F10105F3DC2046FFF70D
:1009000071FD2078000602D50220BDE8F0870120A5
:10091000FBE711680268006A530501D508700AE018
:10092000D30501D5088006E0130603D5C217C1E937
:10093000000200E0086001207047000001694A1CC5
:1009400002610878704700B58FB0CDE90131002110
:10095000059105497944CDE9031011466846FFF732
:1009600001FE0FB000BD0000E5FFFFFF0A6802F8BE
:10097000010B0A60704710B5436913B1AFF30080F3
:1009800001E0FFF740FD012010BD127800F12401C5
:100990000A7000224A700122EDE711684FF0FF3221
:1009A000E9E70000074B70B50D467B44FFF7CBFF2E
:1009B0000446284600F0C2FC10B14FF0FF3070BD75
:1009C000204670BD8B6D00002DE9FF5F15468A46FD
:1009D0000446DFF8AC80F8440027D8E900103E4612
:1009E000CDE9001010E03AF816106A4602A800F0AF
:1009F000A9FC411C07D02178890603D5E269391882
:100A000091420DD80744761C2078800602D5E06913
:100A1000B84205DDAE42E6DB3AF816000028E2D126
:100A2000A069C01BA0612046FFF7C6FCD8E90010F2
:100A3000CDE90010002017E03AF818106A4602A825
:100A400000F080FCB0F1FF3F81460BD000250DF196
:100A5000080B05E0D4E901211BF8050090476D1C47
:100A60004D45F7D308F10100B0428046E4DB206A2F
:100A7000384420622046FFF7B5FCBDE8FF9F000028
:100A8000AEC900002DE9F0418046D21D22F00702D8
:100A90000025D2E90002F52915A614D0011E72F135
:100AA000000106DA0023D0EB030063EB020211A67B
:100AB00008E0D8F800108B0701D50FA602E049071F
:100AC00001D50EA601251146002408F1240704E0F3
:100AD00000F04EF830323A55641C50EA0102F7D16A
:100AE0002B46324621464046BDE8F041FFF7B8BEEE
:100AF000000000002D0000002B000000200000007E
:100B000030B4002100F1240408E002F00705D20807
:100B1000303542EA4372DB086554491C52EA03054A
:100B2000F3D10468002310A2250708D504F020049F
:100B30000C4304D0C46901230CA2641EC46130BC00
:100B4000FFF78EBE10B5044621461068FFF77FFE02
:100B500002462046BDE810400023D1E7D21D22F016
:100B60000701D1E90023CBE70000000030000000BE
:100B700030B5B0F10A024FEA900E71F100034EEA6F
:100B8000817EB0EB0E0061EB91014FEA101E4EEA40
:100B9000017E10EB0E0041EB11114FEA102E4EEAD0
:100BA000016E10EB0E0041EB11214FEA104E4EEAA0
:100BB000014E10EB0E0041EB1141401841F10001D4
:100BC0004FEAD00040EA41704FEAD10110EB8005B6
:100BD0004FEA810444EA907444EB01046D1944EB3C
:100BE0000404521BA3414FF0000348BF0A3200D552
:100BF00030BD401C41F1000130BD70472DE9FF4F71
:100C00000C461E464FF0FF378BB0D2E90001DDF8ED
:100C100060800A908A46C1F30A5505B93D46002115
:100C200008464FF00000BAF1000F00F4400005DA6A
:100C300000EB80004FF4400101EA50004FEA905968
:100C4000B9F1010F00DDB9460A9850EA4A000ED00A
:100C500044F61050A5F2FF3545432F14B8F1000FAC
:100C60001ED07542291E1EDDC9F100021CE0B8F13C
:100C7000010F4FF0000001D0302103E0F24305E006
:100C80002154401CB042FBDB30460022002121549D
:100C90000B99C1F80880C1E900200FB0BDE8F08FC2
:100CA000BD1B6D1CDEE74A4600DA694206A800F06B
:100CB000DFFB06AB93E8070003AB83E80700504671
:100CC0000A9900F04CFC8DE80700A0F500501F3891
:100CD00000900398002D09DD42F21F014A460844A6
:100CE00003A90390684600F0ABFE08E0A0F50050B1
:100CF0004A461F3803A90390684600F0B5FE8DE808
:100D000007000004000C03D04FF0FF30410800E062
:100D10001046B8F1000F03D00022009215461EE0E5
:100D2000751E05D4FFF724FF303262556D1EF9D5CC
:100D3000B3460122084302D000227F1C04E0207841
:100D4000302801D100227F1E002A099786D01DE09D
:100D5000112D07DAFFF70CFF303262556D1C50EA97
:100D60000102F5D1084302D00098C8B10EE000217D
:100D7000681E05E0235C625C63542254401E491CDB
:100D80008142F7DBAB46A81B401E0990002004F807
:100D90000B000B98099AC0F80880C0E9002B7CE78B
:100DA00011264FF0000859E72DE9F04F8846044618
:100DB000D21D22F0070191B0D1E90001CDE90A016D
:100DC00006F068FC02460B98C00F01D02D2007E00A
:100DD0002068810701D52B2002E0202101EAC00014
:100DE000032A099001D0072A05DB03464146204625
:100DF00000F0FEFA0BE12078800601D5E06900E002
:100E00000620B8F1650F814606D0B8F1660F18D0FC
:100E1000B8F1670F70D131E00020B9F1110F0090E7
:100E200001DB112301E009F101030AAA01A90CA8C1
:100E3000FFF7E4FEDDE90C70002609F101058346A9
:100E400047E001204B4600904FF000470AAA01A955
:100E50000CA8FFF7D3FEDDE90DB00C995D46002626
:100E600010B909F101000D18B9EB050003D4C0F168
:100E7000FF3609F10105A5EB09002BE0B9F1010FDF
:100E800001DA4FF001090020B9F1110F0090484636
:100E900001DD112300E003460AAA01A90CA8FFF70F
:100EA000ADFEDDE90C704D46002683462078000734
:100EB0000AD4AB4500DA5D4601A8012D04DD4119D5
:100EC00011F8011C302907D04F4502DA17F1040F41
:100ED00004DA012082460FE06D1EEEE7002F02DCEF
:100EE000ED1B3E4403E0781CA84200DD7D1CB81BCE
:100EF00000F1010A4FF000472078000703D4AA450B
:100F000001DB4FF0FF3A0021B7F1004F0DF143082C
:100F10008DF8431024D002202B23002F01DA7F42CA
:100F20002D230A21021EA0F1010000DC5FB197FB16
:100F3000F1FC97FBF1F201FB1C7C17460CF1300C25
:100F400008F801CDEEE7A8F101000370218809053A
:100F500001D5452100E06521A0F1010800F8011C40
:100F600009980FA9A1EB0807FF1D00B10120411945
:100F700001EBEA70A1693844081A401EA06120788C
:100F8000C00602D42046FFF717FA099828B1D4E921
:100F900001219047206A401C20622078C00622D59B
:100FA0002046FFF709FA1EE0002E04DBB34502DD00
:100FB00001A8805D00E03020D4E901219047206A3B
:100FC000401C2062761CAAF101005FEA000A0AD1E7
:100FD00000F00AFAC0680168405CD4E9012190473A
:100FE000206A401C2062281EA5F10105DCDC07E018
:100FF000D4E9012118F8010B9047206A401C2062B7
:10100000381EA7F10107F3DC2046FFF7EBF90320B8
:1010100011B043E62DE9F04F04460D46D21D22F0F3
:10102000070089B0D0E900974846394606F032FB00
:101030000246F80F01D02D2307E02068810701D573
:101040002B2302E0202101EAC0038DF820300BB1F0
:10105000012000E00020032A824601D0072A04DB99
:101060002946204600F0C4F93FE12078800601D4EB
:101070000D2500E0E569C7F30A560D2D49DA002178
:101080004FEA175B08464FF00000002F00F44000C5
:1010900007DA00EB80004FF4400100EBD07001EA6A
:1010A00060008115012901DD4FF0FF3100224FEA78
:1010B000850CBCF1180F06D31346ACF118004FF0A5
:1010C0008052C24003E04FF4801323FA0CF30CF17A
:1010D0000C0CBCF1200F04D3ACF1200C09FA0CF07D
:1010E00001E007FA0CF000294FF0004801DD18B9C3
:1010F0000FE00ED140450CD319EB02095F4121B935
:10110000404502D19F4329EA0209BBEB175F00D09B
:10111000761C2088000502D57B48784402E07A4896
:101120007844193808AA302302F80A30037C0AF1FF
:101130000101002E0AF1020A53546A4602DC4FF004
:10114000300101E04FF031014FF001088DF800103F
:1011500002D0A6F2FF3603E059EA470100D06B4EF9
:10116000002D02DC2178090704D54FF002082E215A
:101170008DF80110C44600210BE0C7F303433F0183
:10118000C35C491C6D1E02F80830052908F10108EE
:1011900001DA002DF1DC00210CE000EB1973491C91
:1011A0001B786D1E082902F808304FEA091908F16A
:1011B000010801DA002DF0DC21688B0602D516E06B
:1011C000A8F10108E04505DD02EB080313F8013C36
:1011D000302BF5D0B8F1000F09DD02EB080313F84E
:1011E000013C2E2B03D1090701D4A8F10108002DE1
:1011F00005DD3E2102F808106D1E08F10108407C53
:10120000002E02F8080008F1010804DA2D207642C9
:1012100002F8080002E02B2002F808000A214FF42F
:101220007A70864208F101080BDB96FBF0F330334D
:1012300002F8083096FBF0F308F1010800FB136692
:1012400001E0642E0CDB642096FBF0F3303302F8EF
:10125000083096FBF0F308F1010800FB136601E08B
:101260000A2E06DB96FBF1F0303002F8080008F198
:10127000010896FBF1F001FB1060303002F8080025
:10128000A16908F1010808EB050202EB0A00081A3F
:10129000A0612078C00602D42046FFF78DF8216AAD
:1012A00008AE01EB0A00206204E0D4E9012116F83F
:1012B000010B9047BAF1010AF7D22078C00602D597
:1012C0002046FFF779F86E4609E016F8010B3E2834
:1012D0000FD0D4E901219047206A401C2062B8F168
:1012E0000108F2D22046FFF77DF809B00320BDE8DF
:1012F000F08F206A2844206203E0D4E901213020E5
:1013000090476D1EEBD3F8E785C2000002FCFFFF9B
:1013100010B5436913B1AFF3008001E0FFF754FB50
:10132000012010BD128800F1240182840022C284B1
:101330000122EDE711684FF0FF32E9E7007B00F092
:101340008000704770B516460C46054600F044F81C
:10135000036893F80101012806D0FF2C0FD8185D0F
:1013600068B101202C7070BDD3F8070132462146C8
:1013700003F2071303442846BDE8704018474FF0B6
:10138000FF3070BD00487047540800207546FFF7D5
:10139000F9FFAE4605006946534620F00700854632
:1013A00018B020B5FEF7D6FFBDE820404FF000068C
:1013B0004FF000074FF000084FF0000B21F007013D
:1013C000AC46ACE8C009ACE8C009ACE8C009ACE880
:1013D000C0098D467047000010B500F005F8001DEB
:1013E00010BD00BF61750000004870477408002000
:1013F0002DE9F0411F46044603260168072A01F43F
:10140000006004DB08B116A505E016A503E008B1ED
:1014100015A500E015A521F010002060A069C01EF0
:10142000A0610FB1401EA0612046FEF7C5FF4FB17D
:10143000D4E9012138469047206A401C2062C01C34
:10144000206206E0206AFAE7D4E9012115F8010BD1
:101450009047761EF8D22046FEF7C4FFBDE8F08123
:101460004E414E006E616E00494E4600696E660048
:101470002DE9F047814616468AB0334878440DC8B6
:101480008DE80D0030487844801C03AC0DC884E81A
:101490000D0041F69B300844372190FBF1F290FBA0
:1014A000F1F5A5F1800501FB12041B3C02D5644255
:1014B000012000E00020DFF890A080460027FA44D9
:1014C000AAF1BE0A0DE0E00709D03246684607EBF4
:1014D00047010AEB810100F0C7FA8DE807006410AC
:1014E0007F1C002CEFD1184F7F44AC3F18E0E80779
:1014F00014D007EB04100DF1180A90E80E008AE8EA
:101500000E00C068F04201D198190890324606A931
:1015100003A800F0A9FA03AB83E807006D10641C70
:10152000002DE4D132466946B8F1000F03A802D07D
:1015300000F086FA01E000F097FAC9E90001C9F865
:1015400008200AB0BDE8F087B4BF000010B504461B
:10155000AFF300802046BDE81040FEF7E6BE5FEA2C
:10156000400C08BF91F0000F4FEA8C234FEAC122D4
:1015700043EA51514FEA1C5018BF00F5F0404FEAC2
:10158000300018BF41F000415FEA6C5C00F0298038
:10159000BCF1FF3F08BF40F080407047130C06BF0E
:1015A00012044FF0100C4FF0000C130E04BF120287
:1015B0000CF1080C130F04BF12010CF1040C930F73
:1015C00004BF92000CF1020CD30F04BF52000CF1C7
:1015D000010C11464FF00002A0F11F00A0EB0C001F
:1015E000704711F0004F08BF704731F000413FF4E1
:1015F000D5AF0B0C06BF09044FF0100C4FF0000CD8
:101600000B0E04BF09020CF1080C0B0F04BF0901FB
:101610000CF1040C8B0F04BF89000CF1020CCB0FF2
:1016200004BF49000CF1010CCCF12003A0EB0C002D
:1016300022FA03F302FA0CF241EA030100F101007D
:10164000704720F07F4C80EA030023F07F47ACEB2B
:10165000070303F57C5300F0004003F1FF032DE97D
:1016600080494FEA154B09B44FEA144325EA0B4E63
:1016700024EA03480FF2042606EB132749083E78B4
:101680005FEA320203FB0667C7F5000707FB06F6B1
:101690004FEA54374FEAD64606F1020607FB066CBE
:1016A000CCF1005C4FEA1C472CEA074C07FB06F420
:1016B0000CFB06F504EB15464FEA961634BF0020E6
:1016C0004FF000404FEAD13706FB07FC4FEA1C4CB5
:1016D0000CFB0BF7D21B03FB0CF761EB07010CFBB8
:1016E0000EF7B0EB074072EB17420CFB08F734BF64
:1016F000A2EB0742B2EB074261EB17414FEA0C4401
:101700004FEA910706FB07FC4FEA1C4C0CFB0BF75A
:10171000B0EBC74072EB573203FB0CF734BFA2EBC0
:10172000C742B2EBC74261EB57310CFB0EF7B0EB8F
:10173000C70072EB57720CFB08F734BFA2EBC7026D
:10174000B2EBC70261EB5771039F4FEA816141EA37
:10175000921104EBCC044FEAD1374FEA826206FBC8
:1017600007FC42EA90124FEA80604FEA1C4C0CFBE7
:101770000BF7D21B03FB0CF761EB07010CFB0EF719
:10178000B0EB074072EB17420CFB08F734BFA2EB3B
:101790000742B2EB074261EB17414FEA8C554FEA23
:1017A000910704EB9C2406FB07FC4FEA1C4C0CFB46
:1017B0000BF7B0EBC74072EB573203FB0CF734BFAB
:1017C000A2EBC742B2EBC74261EB57310CFB0EF7FD
:1017D000B0EBC70072EB57720CFB08F734BFA2EBFB
:1017E000C702B2EBC70261EB577115EB4C254FEA0C
:1017F000816141EA92114FEA82624FEAD13742EAAF
:10180000901206FB07FC44F100044FEA80604FEAA7
:101810001C4C0CFB0BF7D21B03FB0CF761EB070115
:101820000CFB0EF7B0EB074072EB17420CFB08F70E
:1018300034BFA2EB0742B2EB074261EB174115EB55
:101840001C154FEA813141EA92414FEA823242EA65
:1018500090424FEA80304FEA0C7644F1000448EAA7
:1018600003434EEA0B484FF0000EB2EB080C71EB4D
:10187000030724BF624639464EEB0E0E4FF0000BB5
:101880000018524149414BEB0B0BB2EB080C71EBCA
:1018900003077BF1000B24BF624639464EEB0E0E68
:1018A0004FF0000B0018524149414BEB0B0BB2EBD0
:1018B000080C71EB03077BF1000B24BF624639462D
:1018C0004EEB0E0E51EA020718BF46F0010616EB6A
:1018D0000E7655F1000254F1000103D5BDE88901EF
:1018E000BDE80088BDE88901BDE80048B61952414D
:1018F00041EB0101A3F10103704780807F7E7D7C75
:101900007B7A7978777676757473727171706F6E91
:101910006E6D6C6C6B6A6A6968686766666564643C
:10192000636362616160605F5F5E5E5D5D5C5C5BC6
:101930005B5A5A5959585857575656555555545435
:10194000535352525251515050504F4F4F4E4E4D93
:101950004D4D4C4C4C4B4B4B4A4A4A4949494848DF
:10196000484747474746464645454544444444431F
:1019700043434342424242414141002B26D4770037
:1019800021D01CB54FEA370703B44FF010004FF0D9
:1019900010014FF000000FBCBDE810400BF1010B2F
:1019A000BBF1010F08BF5FEA170722BF12F1010266
:1019B00011F101014FF0004143F1000300F000403C
:1019C00043EA00007047F9D35708DAE746EA0646CB
:1019D00013F1400F4FEA16461FDD13F1200FDFBF52
:1019E00016430A46002120335B42C8D0C3F12007CA
:1019F00046EA064602FA07F74FEA164646EA07069F
:101A0000C3F1200722FA03F201FA07F721FA03F1E2
:101A10004FF0000342EA0702B1E746EA020646EA4F
:101A200006464FEA164646EA0106BCBF46EA0646A7
:101A3000360C4FF000034FF000024FF000019EE71C
:101A40002DE9C048934630B491E8380007C831EA20
:101A5000400C48BF34EA430C03D5FFF7F2FDFFF713
:101A60008CFFF0BCBDE800882DE9C048934630B437
:101A700091E8380007C810F0804F08BF13F0804F7E
:101A800003D100F005F8FFF778FFF0BCBDE800884F
:101A900020F07F4780EA030023F07F4C07EB0C0324
:101AA000A3F57C5300F00040A3F1FE0392F0000F79
:101AB00000F0B38095F0000F00F077802DE9014928
:101AC0004FEA11404FEA144621EA004800FB06FCA9
:101AD00024EA064708FB06F607FB08F800FB07F7B1
:101AE00018EB06484CEB164C4FEA124B18EB074824
:101AF0004FEA15464CEB174022EA0B4E0BFB06FC57
:101B000025EA06470EFB06F607FB0EFE0BFB07F762
:101B10001EEB064E4CEB164C4FF000061EEB074E2C
:101B20004CEB174B18EB0B0840F1000018EB0E0BB9
:101B300058EB000840F100008F1A4FF000013CBF45
:101B4000C943661B14BFB5EB040C00213CBFC9435D
:101B5000F61B4FEA17444EEA8E0E27EA04454FEA79
:101B60001C4704FB07622CEA074C05FB07F70CFB3C
:101B700005F604FB0CFC16EB074642EB174216EB8E
:101B80000C4642EB1C421BEB060658EB020241419D
:101B900046EA9E0601D5BDE80189B619524141EBDE
:101BA0000101A3F10103BDE801894FEA14454FEAA1
:101BB000114724EA054621EA074C05FB07F406FB1A
:101BC00007F70CFB06F105FB0CFC11EB074144EB9E
:101BD00017444FEA124711EB0C4144EB1C4422EA34
:101BE000074C05FB07F206FB07F70CFB06F605FBA7
:101BF0000CFC16EB074642EB174216EB0C4642EB89
:101C00001C456A1854F1000148BF7047B61952418B
:101C100041EB0101A3F10103704795F0000F37D0AC
:101C20004FEA11424FEA144721EA024624EA074CE0
:101C300002FB07F106FB07F70CFB06F402FB0CFCAA
:101C400014EB074441EB17414FEA154714EB0C44E2
:101C500041EB1C4125EA074C02FB07F506FB07F7A1
:101C60000CFB06F602FB0CFC16EB074645EB174592
:101C700016EB0C4645EB1C42121951F1000148BF0E
:101C80007047B619524141EB0101A3F101037047BE
:101C90004FEA14454FEA114724EA054621EA074C6A
:101CA00005FB07F106FB07F70CFB06F24FF00006F9
:101CB00005FB0CFC12EB074241EB174112EB0C4207
:101CC00051EB1C4148BF7047921841EB0101A3F151
:101CD0000103704710B5040006D010210F48012CF5
:101CE00006D0022C07D009E00A2000F043FC11E0E6
:101CF00001600B4901E001600A49416007490A4857
:101D000000F08EF9002202210A2000F049FC0A208E
:101D100000F03BFC0548447010BD0000800100202D
:101D200000001110000021100000024000000020FF
:101D3000FEE770470649D1F8800230B10020C1F8B3
:101D4000800204491020086070470120F7E7000076
:101D500000804042143C014070B5B3F5804F05D07F
:101D60006FF0704140F82210002070BD50F8223012
:101D7000084C2340D1E9004544EA05148D688E895A
:101D80002D0245EA064589692C430C431C4340F863
:101D90002240E9E70000F0CFF0B50C6850F824507D
:101DA000194A1540D1E90123D1E903671A433E439B
:101DB00032434E6932438E693243CE6932430E6AF2
:101DC00032434E6A32438E6A3243CE6A3243CE6B1E
:101DD00032430E6B32434E6B32432A43082B01D100
:101DE00042F0400240F824204A6BB2F5801F08D12F
:101DF0000A6832B14FF480720A61044902681143E3
:101E000001600020F0BD00008000E0FF0001100034
:101E1000F0B500EB820253688E8903F04044D1E9AB
:101E2000003543EA05138D682D0245EA06452B432C
:101E30000E8A0D4D05EB065633430E7D6F0107EB01
:101E4000066633438E693343234353600268D202EC
:101E500007D54268098A22F4700205EB015111434B
:101E600041600020F0BD00000000F0FF30B5D1E976
:101E700001231A43D1E9033423431A434B690D6804
:101E80001A438B691A43D1E90734012D496A056861
:101E90006FF30E0505D01A4322430A432A4302601A
:101EA00008E0234329430B43416803606FF30E01AD
:101EB0000A434260002030BD426942EA410141616B
:101EC00000207047F8B514460546D1E900021043DA
:101ED0008A686FF01F03C96803EB421242EA41218E
:101EE00008430090286100F093F9064609E0601C61
:101EF00007D024B100F08CF9801BA04201D9032047
:101F0000F8BDA8698006F2D40020F8BDF0B56FF0E6
:101F10000F05D1E9003405EB04145B1E2E012343A9
:101F20008C682F0306EB04244FEA054C23430D8AEB
:101F30008E8ACC68097E4FF07F4E07EB05450CEB8F
:101F400006560EEB0161012A0CD082683F1107EBA7
:101F5000043423432B43334302F070420B431343B7
:101F600083600FE0C2682B430B4302F0704281682C
:101F7000134301F070422103A1F580513143114315
:101F8000C36081600020F0BD30B40C4601461546A8
:101F9000500700D0012000EBD50010FB05F0C2B2C5
:101FA00008784B78812809D3402B07D3FF2B05D025
:101FB000FF2803D07F2B0CD2403B0BE000231846B8
:101FC00003E05B1C04F8010BDBB29342F9D330BC95
:101FD0007047413B8138D9B2C0B2C0EB401303EB2C
:101FE000801001EB400050430C490C2D0CD0102DFB
:101FF0000DD0182D0ED0202DE9D1D1F8211001449B
:10200000204630BC05F012BBD1F80910F7E7D1F833
:102010001110F4E7D1F81910F1E70000EC070020E7
:102020002DE9F84FDFF8A091002209F1040A0AF126
:10203000040B4FF00F080BF1040E01260B689640BD
:102040003340B34271D14C68022C01D0122C11D113
:10205000D40800EB84073D6A5407E40E08FA04FC38
:1020600025EA0C05D1F810C00CFA04FC4CEA050C6A
:10207000C7F820C007685400032591F804C0A540A4
:102080000CF0030CAF430CFA04FC4CEA070CC0F84C
:1020900000C04F68012F05D0022F03D0112F01D0AF
:1020A000122F11D18768D1F80CC0AF430CFA04FC91
:1020B0004CEA070CC0F808C04768B7430E79C6F36E
:1020C000001696403E434660C668AE438D68A54004
:1020D0003543C5604C68E4006FD53C4C256845F439
:1020E00080452560246822F0030504F480440094B0
:1020F000374C2E19D6F808789407250F08FA05F4FE
:10210000A743344CA04201D100242EE0324CA0421F
:1021100001D1012429E0314CA04201D1022424E064
:102120002F4CA04202D103241FE046E02D4CA042D8
:1021300001D1042419E02C4CA04201D1052414E063
:102140002A4CA04201D106240FE0294CA04201D123
:1021500007240AE0274CA04201D1082405E0264CC0
:10216000A04201D1092400E00A24AC403C43C6F857
:102170000848D9F800404D464E689C43F60300D508
:102180001C432C60DAF8004055464E689C43B60369
:1021900000D51C432C60DBF800405D464E689C4334
:1021A000F60200D51C432C60DEF8004075464E68F0
:1021B0009C43B60200D51C432C60521C102AFFF42D
:1021C0003CAFBDE8F88F0000003C014044380240BD
:1021D00000300140000002400004024000080240BC
:1021E000000C02400010024000140240001802409F
:1021F000001C024000200240002402400069084008
:1022000000D0012070470AB1816170470904FBE7E3
:102210000148006870470000200000200248016863
:10222000491C016070470000200000200B4810B5D9
:10223000016841F400710160016841F4806101604E
:10224000016841F480710160052000F0C9F90F2098
:1022500000F006F800F08AF9002010BD003C0240B2
:1022600010B5044600F06AFC4FF47A71B0FBF1F04F
:1022700001F0F2F800222146501E00F091F90020F2
:1022800010BD2DE9F041044690F8A00015460F4618
:1022900001281DD0012684F8A060022084F8A10046
:1022A00005EB850000EBC50004EB800034223830DC
:1022B000FEF74DFA2A463946204604F0E9FB20682D
:1022C000466284F8A160002084F8A000BDE8F08197
:1022D0000220FBE770B5040004D094F8A1000025AB
:1022E00010B106E0012070BD84F8A050204600F037
:1022F0006FF8022084F8A1002068816921F0704104
:102300008161D4E901100143D4E903021043014380
:102310002068826911438161206882682B490A40E4
:102320008260A08A020420688368A669334313434D
:1023300083602068C2680A40C260A08B02042068E3
:10234000C368266A33431343C360206802690A40A6
:102350000261A08C020420680369A66A3343134318
:102360000361206842690A404261A08D010420682F
:102370004269236B1A430A43426194F83500020212
:1023800094F8360001042068C36A03F07F43C362F7
:102390002068C36A94F83460114333430B43C3622B
:1023A0002068416B41F0040141632068416B41F0BA
:1023B000020141632068816941F001018161C4F833
:1023C000A450012084F8A100002070BD00F800F0A6
:1023D00030B5364887B00025016841F08061016062
:1023E000006800F08060059030481438016841F4BE
:1023F00000010160016801F400010591016841F0EC
:1024000002010160016801F002010591016841F0DB
:1024100020010160016801F020010591016841F08F
:1024200040010160016801F040010591016841F03F
:1024300080010160016801F080010591016841F4AB
:10244000807101600068032400F4807005902020F2
:1024500000900120CDE90204019069461448FFF77D
:10246000DFFD4FF4806000900220CDE901050E20D1
:10247000CDE9034069460F48FFF7D2FD4FF40C60E9
:10248000009069460C48FFF7CBFD4FF47E4000906A
:1024900069460A48FFF7C4FD40F2F76000906946BC
:1024A0000748FFF7BDFD07B030BD000044380240CB
:1024B000000402400014024000180240001C0240C8
:1024C0000020024070B5044690F8A0000E46012896
:1024D00020D0012584F8A050022084F8A10003EB4D
:1024E000830000EBC30004EB800141F8386F886A79
:1024F0003044C1E90102C86A1044C8601A46204647
:1025000004F0C6FA2068456284F8A150002084F8DF
:10251000A00070BD022070BD2DE9F041044690F886
:10252000A0000F4601281FD0012584F8A0500220EA
:1025300084F8A10003EB830000EBC30004EB8001EF
:102540000026E1E90E672046C1E90262C1E90A728C
:102550001A4604F09DFA2068456284F8A15084F878
:10256000A0600020BDE8F0810220FBE708B5002054
:10257000009008BD00F01F02012191404009800039
:1025800000F1E020C0F88011704700F01F02012127
:1025900091404009800000F1E020C0F80011704730
:1025A000F0B40E4B1B68C3F30223C3F10704042CE1
:1025B00000D904241D1D072D01D2002300E0DB1EDD
:1025C000012606FA04F56D1E0D409D409E40761EC4
:1025D000164045EA0601F0BC04F00DBB0CED00E02E
:1025E000064A00F0070110684FF6FF03184040EA62
:1025F0000120034908431060704700000CED00E023
:102600000000FA052DE9F8431D48016841F08051AA
:1026100001600068012700F080500090380490FAB3
:10262000A0F0DFF86080B0FA80F048F82070FFF783
:10263000EFFD04464FF47A75134E04E0FFF7E8FD12
:10264000001BA84213D87068C003F7D54FF40030C0
:1026500090FAA0F0B0FA80F048F82070FFF7D8FDAB
:10266000044607E0FFF7D4FD001BA84202D903206F
:10267000BDE8F88370688003F4D50020F8E7000017
:102680004038024000000E42007000402DE9F84F33
:1026900004460068DFF878829E4DC10747F6C07A8D
:1026A0004FF0E0464FF0010B4FF0000901D18007D9
:1026B0004BD59949C1F86890FFF7AAFD074604E099
:1026C000FFF7A6FDC01B64287ED828680001F7D458
:1026D00020789249C0070DD09AFAAAF26068B2FA3F
:1026E00082F2904096FAA6F3A268B3FA83F39A4076
:1026F000104308602078800718D5086896FAA6F27B
:1027000000F0E040B2FA82F2D0406268237B92018E
:1027100042EA036242EA00700860D8F80010E269F9
:1027200021F01F01521E1143C8F800107A49C1F868
:1027300068B0FFF76DFD074604E0FFF769FDC01BB9
:10274000642841D828680001F7D52068410701D4E2
:10275000000776D57049C1F87090FFF759FD07461C
:1027600004E0FFF755FDC01B64282DD82868C0433E
:102770008000F6D520786A4F40074FF0706C29D55D
:10278000386896FAA6F100F0E040B1FA81F1C8404D
:102790009AFAAAF22169B2FA82F291409CFAACF359
:1027A0006269B3FA83F39A40114396FAA6F2B2FA39
:1027B00082F2904001433960D8F800106FF0FF03B7
:1027C00021F4F851226A00E079E003EB0222114380
:1027D000C8F800102078000723D538689CFAACF1BF
:1027E00000F07060B1FA81F1C8409AFAAAF221694A
:1027F000B2FA82F291409CFAACF2B2FA82F29040C4
:10280000014396FAA6F2A069B2FA82F2904001431F
:102810003960D8F80010626A21F440311143C8F8D9
:1028200000103D49C1F870B0FFF7F2FC064604E025
:10283000FFF7EEFC801B642841D82868C043800065
:10284000F6D42078800651D532484F464030016892
:1028500041F0805101600068324E00F080500090DD
:10286000306840F480703060FFF7D2FC054604E029
:10287000FFF7CEFC401B642821D83068C005F7D58F
:10288000264E143E3068218D00F4407001F44071F2
:1028900088422BD03068244920F44070C1F800B041
:1028A0000F603060800710D5FFF7B2FC054641F29B
:1028B000883707E0FFF7ACFC401BB84202D9032081
:1028C000BDE8F88F30688007F4D5A06A1149C0F3DD
:1028D00001220831032A13D0086820F4F810086098
:1028E0003068218DC1F30B01084330602078C006A9
:1028F00004D50E4994F82C00C1F8E0010020DFE770
:102900000A680B4B22F4F812184002430A60E7E70A
:102910008C380240003802400000474284380240B0
:102920008838024000700040400E47420010474285
:10293000FFFCFF0F2DE9F05FDFF8F8A104460F461A
:10294000DAF80000DFF8F08100F00F02C8B27A492F
:10295000814641F2883608F10808BA4261D202463F
:102960008AF80020DAF8000000F00F00B8427DD1AC
:102970002078800707D5D8F80020A36822F0F0025D
:102980001A43C8F800202078C0072DD060680128BD
:102990001AD002281BD0032819D0096889070029FA
:1029A00064DAD8F80010474621F003010143C8F863
:1029B0000010FFF72DFC0546606801280FD00228A3
:1029C00018D003281CD027E009688903E7E70968C5
:1029D0008901E4E7FFF71CFC401BB04258D8386877
:1029E000C0F381000128F5D188E0FFF711FC401BFE
:1029F000B0424DD83868C0F381000228F5D17DE09F
:102A00003868FFF705FC401BB042F9D940E0FFF7FA
:102A1000FFFB401BB0423BD8386810F00C0FF6D1DA
:102A20006CE02078800707D5D8F80020A36822F052
:102A3000F0021A43C8F800202078C0074CD0606824
:102A4000012828D0022829D0032827D0096889071F
:102A5000002949DAD8F8002022F003020243C8F81E
:102A60000020FFF7D5FB0546606800E03CE0012848
:102A70001DD0022829D0032838D0B34646463068F6
:102A800010F00C0F28D0FFF7C3FB411B5945F6D9B6
:102A90000320BDE8F09F09688903D9E70968890127
:102AA000D6E7FFF7B5FB411B594502D9F0E7B3461E
:102AB00046463068C0F381000128F2D10CE0FFF7F0
:102AC000A7FB411B594502D9E2E7B34646463068A9
:102AD000C0F381000228F2D18AF80090DAF80000F1
:102AE00000F00F00B84209D00120D2E74446206828
:102AF000FFF78EFB401BB042F9D9C9E720784007A9
:102B000007D5D8F80010E26821F4E0511143C8F865
:102B100000102078000708D5D8F80010226921F4A9
:102B2000604141EAC201C8F800100F20FFF798FB8E
:102B30000020AEE7003C02400038024010B500F033
:102B400043F808490968F02292FAA2F201F0F00174
:102B5000B2FA82F2D140044A515CC840034908608D
:102B600010BD000008380240FE8B00080C00002059
:102B700010B5FFF7E3FF074909684FF4E05292FAF6
:102B8000A2F201F4E051B2FA82F2D140024A515C61
:102B9000C84010BD08380240FE8B000810B5FFF792
:102BA000CDFF074909684FF4604292FAA2F201F49E
:102BB0006041B2FA82F2D140024A515CC84010BD75
:102BC00008380240FE8B000830B51948006810F044
:102BD0000C01184812D0184C04290ED008290DD128
:102BE000134A121F1168136801F03F015D0247F696
:102BF000C07304D5B4FBF1F003E0204630BDB0FB58
:102C0000F1F01168194093FAA3F3B3FA83F3D940B2
:102C1000484311684FF4403292FAA2F201F4403175
:102C2000B2FA82F2D140491C4900B0FBF1F030BD4C
:102C3000083802400024F40040787D012DE9F84F67
:102C400004460078DFF8FCA2BF4DC0074FF0000635
:102C500048D0DAF800105046C1F38101012908D0AC
:102C60000068C0F3810002280AD1281D00684002D4
:102C700006D52868800335D56068002873D031E018
:102C8000DFF8C49209F1020989F80060FFF7C0FA81
:102C9000074641F2883804E0FFF7BAFAC11B414504
:102CA0007AD828688003F7D4207989F80000606812
:102CB00060B1FFF7ADFA074604E0FFF7A9FAC11BC0
:102CC0004145EDD828688003F7D50BE0FFF7A0FA5F
:102CD000074604E0FFF79CFAC11B4145E0D828688D
:102CE0008003F7D42078DFF86492800744D5DAF8BF
:102CF0000010504611F00C0F4FF0F80809D0006892
:102D0000C0F3810002280BD18E48001F00684002EA
:102D100006D42868800714D5E068012823D110E084
:102D2000E068D0B10120C9F80000FFF771FA07464A
:102D300004E0FFF76DFAC01B6428B1D8286880074B
:102D4000F7D5286898FAA8F22169B2FA82F220F041
:102D5000F8009140084328600EE0C9F80060FFF7D2
:102D600057FA074605E0EAE0FFF752FAC01B64286D
:102D700012D828688007F7D42078000725D5DFF817
:102D8000C4817348616908F16C0881B10121016057
:102D9000FFF73EFA074605E07EE0FFF739FAC01B71
:102DA000642879D8D8F800008007F6D50DE00660D1
:102DB000FFF72EFA074604E0FFF72AFAC01B642843
:102DC0006AD8D8F800008007F6D42078400753D599
:102DD0005C483830016841F0805101600068DFF8DC
:102DE000748100F080500090D8F8001041F4807198
:102DF000C8F80010FFF70CFA074604E0FFF708FADE
:102E0000C01B642848D8D8F80000C005F6D5DFF804
:102E100034B10BF1680B8BF80060FFF7F9F9074646
:102E200041F2883804E0FFF7F3F9C11B41457ED831
:102E3000DBF800008007F6D4207A8BF80000A06849
:102E400068B1FFF7E5F9074604E0FFF7E1F9C11BB8
:102E500041456CD8DBF800008007F6D50CE0FFF7A1
:102E6000D7F9074604E0FFF7D3F9C11B41455ED807
:102E7000DBF800008007F6D4A069E8B3DAF80010A8
:102E8000C1F3810102295AD0022806D0C9F8606036
:102E9000FFF7BEF904464DE049E04F46C9F86060CF
:102EA000FFF7B6F9064604E0FFF7B2F9801B642885
:102EB0003DD828688001F7D4D4E90701084347F6D4
:102EC000C07191FAA1F1626AB1FA81F18A40A16AF6
:102ED0004FF0FF3303EB51014FF4403393FAA3F368
:102EE000B3FA83F399400A4310434FF0706292FAA9
:102EF000A2F2B2FA82F200E01FE0E16A91400843D8
:102F00001049091F086001203866FFF781F904465F
:102F100004E0FFF77DF9001B642808D828688001C9
:102F2000F7D50AE0FFF774F9001B642802D90320E3
:102F3000BDE8F88F28688001F4D40020F8E701206C
:102F4000F6E700000838024000380240000047421F
:102F5000800E47420070004070B50D46040003D05B
:102F600094F82C0010B107E0012070BD002084F817
:102F70002D00204600F012F8022084F82C00211DBC
:102F80002068FEF773FFD4E900022946FEF7BEFF72
:102F9000012084F82C00002070BD0000304800B5EE
:102FA000016887B041F001010160006800F0010094
:102FB00005902B480838016841F004010160016860
:102FC00001F004010591016841F008010160016808
:102FD00001F008010591016841F0100101600168EC
:102FE00001F010010591016841F0200101600168C4
:102FF00001F020010591016841F040010160006885
:10300000694600F0400005900D20009002200190DC
:1030100001200290032003900C2004901148FEF739
:10302000FFFF4CF20370009069460F48FEF7F8FF6F
:103030004FF68370009069460C48FEF7F1FF4FF69B
:103040003F00009069460A48FEF7EAFF48F2371051
:10305000009069460748FEF7E3FF07B000BD000097
:103060003838024000080240000C024000100240C4
:10307000001402400018024010B5044690F82C00DD
:10308000022809D0022084F82C002068FEF714FFE3
:10309000012084F82C00002010BD70B5044690F883
:1030A0002C000D4602280CD0022084F82C00206849
:1030B000FEF708FF2868022804D0012084F82C00BD
:1030C000002070BD0520F9E72DE9F843044690F88B
:1030D0005100DDF82080012801D022287ED169B17D
:1030E00062B15BB194F85000012877D0012784F8D1
:1030F000507094F85100012803D005E00120BDE88C
:10310000F883322084F8510000266665A263A38705
:10311000E3872163A386E386A664E664A06A4FF48E
:103120000055A84209D12068016821F400510160CE
:103130002068016841F40051016020680168490677
:1031400003D4016841F040010160E0684FF48271EE
:10315000B0F5006F606807D0002867D088426ED154
:10316000E08E012862D06AE020B188420CD1E08E66
:10317000012809D1206B21680088C860206B801C61
:103180002063E08E401EE086E08E80B9A06AA842EF
:1031900044D12068016841F4805101603EE020681C
:1031A000C068A16B0880A06B801CA0639EE04346B2
:1031B00000220221204603F0B1FD002874D1206BCB
:1031C00021680088C860206B801C2063E08E401E50
:1031D0000004000CE08609D1A06A00E0C7E0A84224
:1031E00004D12068016841F4805101604346002207
:1031F0000121204603F092FD00286FD12068C068AD
:10320000A16B0880A06B801CA063E08F401EE0874C
:10321000E08E0028CBD1606800286AD143460022A6
:103220000121204603F07AFDF0BBB8E7206B411C7A
:10323000216321680078C860E08E401EE086E08E41
:1032400098B9A06AA84204D12068016841F480516D
:103250000160434600220121204603F05FFD18BBB8
:103260002068C068A16B087040E04346002202213C
:10327000204603F053FDB8B9206B411C216321683F
:103280000078C860E08E401E0004000CE08607D184
:10329000A06AA84204D12068016841F4805101600D
:1032A00000224346012100E018E0204603F036FDED
:1032B000A0B92068C168A06B421CA2630170E08FB6
:1032C000401EE087E08E0028CFD1606888B9434671
:1032D00000220121204603F021FD08B103200EE762
:1032E0002068C168A06B421CA2630170E08F401E81
:1032F000E087A06AA84210D143460022012120465F
:1033000003F00CFD18B1606D40F002000FE0206882
:10331000C068ADF80000BDF80000434601228021DE
:10332000204603F0FBFC20B1606D40F0200060659A
:10333000D4E784F8517020688168A26AC1F3001153
:10334000AA4210D179B1616D41F002016165016855
:1033500021F4005101602068016841F400510160CE
:1033600084F85060CAE684F850600020C7E6022066
:10337000C5E670B515460E46040003D094F8490022
:1033800010B107E0012070BD002084F848002046FD
:1033900000F01AF804F108012068FEF7FDFC314640
:1033A000A2682068FEF734FDD4E901022946236BA8
:1033B000FEF7D2FCA168206850F8212042F00102FB
:1033C00040F82120002070BD1A4800B5016887B080
:1033D00041F001010160006800F00100059015480E
:1033E0000838016841F008010160016801F0080136
:1033F0000591016841F0100101600068694600F024
:10340000100005904EF2B370009002200190012050
:103410000290032003900C2004900748FEF700FE62
:103420004FF68070009069460448FEF7F9FD07B03A
:1034300000BD000038380240000C0240001002407D
:103440004FF0E0210428086903D020F0040008614F
:10345000704740F00400FAE710B5401EB0F1807FDD
:1034600001D3012010BD4FF0E02460610F216017EF
:1034700003F0C1FB0020A06107202061002010BDE7
:103480007047704710B5040003D094F8390010B1AC
:1034900007E0012010BD002084F83800204600F02D
:1034A0000DF8022084F83900211D206803F0D4FDB6
:1034B000012084F83900002010BD000008B5006824
:1034C0000B49884212D10B48016841F004010160A8
:1034D0000068032200F00400009011461E20FFF750
:1034E0005FF8BDE808401E20FFF74FB808BD000098
:1034F0000008004040380240022180F8391001687D
:103500000A6842F001020A60012180F839100020A7
:1035100070470168CA6842F00102CA600068016829
:1035200041F00101016000207047022180F839104C
:1035300001680A6A41F211131A4207D10A6A9B1004
:103540001A4203D10A6822F001020A60012180F8C0
:10355000391000207047704770B504460068016953
:103560004FF00005C943890715D4C168C9438907CD
:1035700011D4E91E0161012020762068806980074E
:10358000204602D0FFF7E7FF04E000F098F820465D
:1035900000F096F8257620680169C943490717D4D9
:1035A000C168C943490713D46FF0040101610220C7
:1035B00020762068806910F4407F204602D0FFF713
:1035C000CAFF04E000F07BF8204600F079F8257689
:1035D00020680169C943090716D4C168C9430907AE
:1035E00012D46FF008010161042020762068C069C0
:1035F0008007204602D0FFF7AEFF04E000F05FF83E
:10360000204600F05DF8257620680169C943C906A7
:1036100017D4C168C943C90613D46FF01001016102
:10362000082020762068C06910F4407F204602D030
:10363000FFF791FF04E000F042F8204600F040F868
:10364000257620680169C943C90708D1C168C94303
:10365000C90704D1891E0161204600F033F82068B3
:103660000169C943090609D4C168C943090605D4DB
:103670006FF0800101612046FFF702FF20680169B9
:10368000C943490609D4C168C943490605D46FF046
:1036900040010161204600F039F820680169C94302
:1036A00089060BD4C168C943890607D46FF020018D
:1036B00001612046BDE87040FFF7E3BE70BD704772
:1036C0007047000070B505460C48854207D10C488C
:1036D000018841F4004101800848FFF726FF094CAA
:1036E000A54209D108480069804721680020486246
:1036F00021686420C862E06070BD0000B00700204F
:1037000048000020180800208C00002070477047F7
:1037100038B5016804460868CA68C0F3000002F4BE
:10372000807238B132B1086848680090E06B40F0B0
:103730000100E06308684A69C0F3400002F001023A
:1037400038B132B1086848680090E06B40F004007E
:10375000E06308684A69C0F3800002F0010238B1F2
:1037600032B1086848680090E06B40F00200E06306
:1037700008684A69C0F3C00002F0010238B132B1F2
:10378000086848680090E06B40F00800E063086853
:10379000C968C0F3401001F0200118B111B12046F2
:1037A00003F0D0FC20680168C068C1F3C01100F0CC
:1037B000800019B110B1204603F012FE216808689C
:1037C000CA68C0F3801002F04002012568B162B1FE
:1037D000CA68204622F04002CA6094F839103229A3
:1037E0000CD080F8395000F051F9E06B002804D07B
:1037F00084F839502046FFF78AFF38BD222180F82F
:103800003910F0E770B5040004D094F839000025B1
:1038100010B106E0012070BD84F83850204600F059
:1038200021F8022084F839002068C16821F4005191
:10383000C160204603F01AFD2068016921F490411F
:1038400001612068416921F02A0141612068C16855
:1038500041F40051C160E563012084F83900002083
:1038600070BD000030B504460068204987B088422A
:1038700039D11F48016841F001010160006800F082
:10388000010005901A481430016841F010010160F0
:103890000068012100F0100005904FF400700090C6
:1038A0000220CDE9010103900720124D04906946E2
:1038B0002846FEF7B5FB2815009069462846FEF716
:1038C000AFFB2068C16821F04001C1602068C16879
:1038D00041F02001C1602520FEF757FE032211466A
:1038E0002520FEF75DFE07B030BD0000001001404E
:1038F00030380240000002402DE9F047044690F8BD
:10390000390099460D46012801D0122857D125B318
:103910001AB394F83800012851D0012684F8386091
:103920000027E76394F83900122819D0222084F880
:103930003900A285E2854FF48058E08D4B46401E49
:10394000E085A0684FF0000240454FF0200120467E
:1039500016D103F078FDB0B904E00120BDE8F0878E
:103960003220E4E7206900282068406803D0C1B213
:1039700025F8011B12E0C0F3080125F8021B0DE039
:1039800003F061FD08B10320E8E720690028206802
:10399000406801D000F07F0005F8010BE08D0028A1
:1039A000CBD194F83900322805D084F8396084F8F6
:1039B00038700020D2E7122084F83900F7E702209F
:1039C000CCE770472DE9F047044690F83900994656
:1039D0000D46012801D0222856D125B31AB394F8F8
:1039E0003800012850D0012684F838600027E763AA
:1039F00094F83900222819D0122084F83900A284C2
:103A0000E2844FF48058E08C4B46401EE084A0686E
:103A10004FF0000240454FF08001204613D103F0E3
:103A200012FD08BB04E00120BDE8F0873220E4E786
:103A300028882168C0F308004860206908B16D1C1F
:103A400008E0AD1C06E003F0FEFC68B9216815F83B
:103A5000010B4860E08C0028D5D14B460022402164
:103A6000204603F0F0FC08B10320DDE794F83900AC
:103A7000322805D084F8396084F838700020D3E704
:103A8000222084F83900F7E70220CDE77047FEE7EF
:103A900070B51B4886B00025016841F00101016046
:103AA000016801F001010591016841F00401016024
:103AB000016801F004010591016841F08001016095
:103AC0000068032400F08000059002200126CDE963
:103AD0000204CDE9006569460A48FEF7A1FA7003C1
:103AE00003948DE8610069460748FEF799FA0C20B7
:103AF000009069460548FEF793FA06B070BD0000D5
:103B0000303802400000024000080240001C024021
:103B10002DE9F0470126304C7703DFF8C080DFF84D
:103B2000C090304D01281DD02078A0B10821284632
:103B3000FEF764FBC0B104212846FEF75FFB98B195
:103B400039464046FEF75AFB70B101214846FEF760
:103B500055FB012808D008212846FEF74FFB012815
:103B600026D037E02670E1E70A2003F0BDFD0020F3
:103B7000207008212846FEF741FB80B10421284629
:103B8000FEF73CFB70B139464046FEF737FB58B1B3
:103B900001214846FEF732FB012807D01AE0012038
:103BA000BDE8F0870220FBE70320F9E70420F7E7F0
:103BB00004212846FEF722FB01280BD13946404656
:103BC000FEF71CFB012805D101214846FEF716FB34
:103BD00000B926700020E3E7300000200008024012
:103BE00000000240001C024070B50E490E4A064615
:103BF00008881268002422B13046BDE8704002F007
:103C000023BD4D8800214543084602F0DDFB02F04C
:103C1000E3FCB1B2054801E00180641CAC42FBD377
:103C200070BD0000EC020020D803002000000860F6
:103C30002DE9F05F394C3A4DA071296839B102F095
:103C400023FDE88A2080288B6080BDE8F09F3349FF
:103C50002C232A2589884FF0F00949F2413A2B2676
:103C600045F2105B4FF4305E4FF448774FF4A07884
:103C700045F2103C4FF4F07258B1A4F80080A4F85B
:103C80000290514501D0614529D123816581A681EA
:103C900039E0A4F80090A4F80280514501D06145B4
:103CA00008D123816581A681614531D1A4F80080C6
:103CB00062802DE0594508D1A4F808E04FF428505F
:103CC00060814FF42C50A08106E0A1F5C850633804
:103CD0001ED123816681A5812280678018E0594525
:103CE00008D1A4F808E04FF4285060814FF42C501C
:103CF000A08106E0A1F5C850633804D12381658115
:103D0000A68127806280614502D12280A4F80280CA
:103D1000BDE8F05F002002F07BBA0000EC0200205A
:103D2000D80300202DE9F04104463A480D460068CA
:103D300020B12046BDE8F04102F0BABC364E270A59
:103D40003146B0884989A0F513434FEA1528413B15
:103D50000CD0A0F5A643103B08D0A0F5AA43103B19
:103D600011D0A0F5C853633B27D04BE0084602F0C2
:103D700027FC384602F018FCE0B202F015FCB089CE
:103D800002F01EFC38E0084602F01AFC384602F049
:103D90000BFC7089401C80B202F012FCE0B202F011
:103DA00003FCB08902F00CFC404602F0FDFBB08938
:103DB000401C80B202F004FC21E0B07918B93088D0
:103DC000001B401E84B2084602F0FAFB270A384660
:103DD00002F0EAFBE0B202F0E7FB384602F0E4FB57
:103DE000E0B202F0E1FBB08902F0EAFB404602F0EB
:103DF000DBFBE8B202F0D8FB404602F0D5FBE8B2AC
:103E000002F0D2FB054930890880881C0280BDE899
:103E1000F0810000D8030020EC020020FEFF0760C4
:103E20002DE9F04F95B002F0D7FDFE4D4FF0010A9D
:103E3000A5F15009A88049F2413B45F2103645F200
:103E4000105441F6631818B102F0A6FC02F08BB9C9
:103E5000F5480027016841F002010160006810A9DF
:103E600000F0020000902020CDE9100A0320CDE9E7
:103E700012A0EE48FEF7D4F84FF020414846C9F8AA
:103E80000010EB49C0E901171021C9F80C70C0E916
:103E90000471C9F818700902C9F81C70C0E90971E9
:103EA0008900C0E90B71C9F834708901C9E90E7144
:103EB00046210B910F20CDE90907CDE902070490B7
:103EC000D8480F9702AA09A908975038FFF751FA66
:103ED000322003F009FCD32002F072FB02F066F9F5
:103EE000A88002F063F9A88002F060F94FF6FF7233
:103EF00002EA0020A88002F059F9A9885F46084329
:103F0000A880B84248D0D42002F05AFB02F04EF903
:103F1000A88002F04BF9A88002F048F902EA0020DC
:103F2000A88002F043F9A9880843A880B04233D0A2
:103F30004FF45A4002F044FB02F038F9A8804FF4E5
:103F40005B4002F03DFB02F031F902EA0020A8805C
:103F50004FF45C4002F034FB02F028F9A9880843D2
:103F6000A880B0F5004F7DD0A04215D0A12002F06E
:103F700027FB02F01BF9A88002F018F902EA0020E2
:103F8000A88002F013F9A9880843A0F5AE41A880E3
:103F9000613901D1A5F80480A988A6A0FCF700FA30
:103FA000A888B8427ED1CF2002F00AFB002002F0A0
:103FB000FBFAC12002F0F8FA302002F0F5FAED2009
:103FC00002F0FEFA642002F0EFFA032002F0ECFAAD
:103FD000122002F0E9FA812002F0E6FAE82002F06D
:103FE000EFFA852002F0E0FA102002F0DDFA7A20E4
:103FF00002F0DAFACB2002F0E3FA392002F0D4FA28
:104000002C2002F0D1FA002002F0CEFA342002F087
:10401000CBFA022002F0C8FAF72002F0D1FA2020F1
:1040200002F0C2FAEA2002F0CBFA002002F0BCFA59
:10403000002002F0B9FAC02002F0C2FA1B2002F000
:10404000B3FAC12002F0BCFA012002F0ADFAC5209B
:1040500002F0B6FA302002F0A7FA302002F0A4FAFB
:10406000C72000E0B7E002F0ABFAB72002F09CFAFC
:10407000362002F0A5FA482002F096FA3A2002F023
:104080009FFA552002F090FAB12002F099FA002030
:1040900002F08AFA1A2002F087FAB62002F090FAAB
:1040A0000A2000E099E002F07FFAA22002F07CFAF8
:1040B000F22002F085FA002002F076FA262002F0C3
:1040C0007FFA012002F070FAE02002F079FA0F2066
:1040D00002F06AFA2A2002F067FA282002F064FA55
:1040E000082002F061FA0E2002F05EFA082002F0C9
:1040F0005BFA542002F058FAA92002F055FA432046
:1041000002F052FA0A2002F04FFA0F2002F04CFAA5
:10411000002002F049FA002002F046FA002002F0E6
:1041200043FA002002F040FAE12002F049FA0020B0
:1041300002F03AFA152002F037FA172002F034FAAA
:10414000072002F031FA112002F02EFA062002F0C8
:104150002BFA2B2002F028FA562002F025FA3C20F8
:1041600002F022FA052002F01FFA102002F01CFAD9
:104170000F2002F019FA3F2002F016FA3F2002F059
:1041800013FA0F2002F010FA2B2002F019FA002087
:1041900002F00AFA002002F007FA012002F004FA05
:1041A0003F2002F001FA2A2002F00AFA002002F071
:1041B000FBF9002002F0F8F9002002F0F5F9EF20F9
:1041C00002F0F2F9112002F0FBF9782003F08CFAEA
:1041D000292001F00BBFAC80DEE6B0427ED1ED209D
:1041E00002F0EEF9012002F0DFF9FE2002F0DCF926
:1041F000EE2002F0E5F9DE2002F0D6F9212002F0EF
:10420000D3F9F12002F0DCF9012002F0CDF9DF2032
:1042100002F0D6F9102002F0C7F9C42002F0D0F95C
:104220008F200FE0EC0200203038024000040240F2
:10423000040100A0204C43442049443A25780D0A4B
:104240000000000002F0B0F9C62002F0B9F9002029
:1042500002F0AAF9E22002F0A7F9E22002F0A4F9A4
:10426000E22002F0A1F9BF2002F0AAF9AA2002F090
:104270009BF9B02002F0A4F90D2002F095F900207E
:1042800002F092F90D2002F08FF9002002F08CF973
:10429000112002F089F9002002F086F9192002F0BD
:1042A00083F9002002F080F9212002F07DF900203E
:1042B00002F07AF92D2002F077F9002002F074F96B
:1042C0003D2002F071F9002002F06EF95D2002F04D
:1042D0006BF9002002F068F95D2000E0FEE302F0D7
:1042E00063F9002002F060F9B12002F069F9802042
:1042F00002F05AF9002002F057F98B2002F054F92D
:10430000002002F051F9962002F04EF9002002F050
:104310004BF9B22002F054F9002002F045F90020D8
:1043200002F042F9022002F03FF9002002F03CF9CD
:10433000032002F039F9002002F036F9B32002F030
:104340003FF9002002F030F9002002F02DF90020A2
:1043500002F02AF9002002F027F9002002F024F9E7
:10436000002002F021F9002002F01EF9002002F0E6
:104370001BF9002002F018F9002002F015F90020C6
:1043800002F012F9002002F00FF9002002F00CF9FF
:10439000002002F009F9002002F006F9002002F0E6
:1043A00003F9002002F000F9002002F0FDF80020DF
:1043B00002F0FAF8002002F0F7F8002002F0F4F81A
:1043C000002002F0F1F8002002F0EEF8002002F0E8
:1043D000EBF8B42002F0F4F88B2002F0E5F80020AE
:1043E00002F0E2F8962002F0DFF8002002F0DCF89C
:1043F000A12002F0D9F8002002F0D6F8B52002F092
:10440000DFF8022002F0D0F8002002F0CDF80320FF
:1044100002F0CAF8002002F0C7F8042002F0C4F845
:10442000002002F0C1F8B62002F0CAF8002002F025
:10443000BBF8002002F0B8F8B72002F0C1F8002065
:1044400002F0B2F8002002F0AFF83F2002F0ACF822
:10445000002002F0A9F85E2002F0A6F8002002F089
:10446000A3F8642002F0A0F8002002F09DF88C2050
:1044700002F09AF8002002F097F8AC2002F094F8CD
:10448000002002F091F8DC2002F08EF8002002F00B
:104490008BF8702002F088F8002002F085F8902058
:1044A00002F082F8002002F07FF8EB2002F07CF8A6
:1044B000002002F079F8DC2002F076F8002002F00B
:1044C00073F8B82002F07CF8002002F06DF80020AC
:1044D00002F06AF8002002F067F8002002F064F8A9
:1044E000002002F061F8002002F05EF8002002F0E7
:1044F0005BF8002002F058F8BA2002F061F824209E
:1045000002F052F8002002F04FF8002002F04CF8C0
:10451000002002F049F8C12002F052F8202002F0F9
:1045200043F8002002F040F8542002F03DF800204B
:1045300002F03AF8FF2002F037F8002002F034F8D9
:10454000C22002F03DF80A2002F02EF8002002F00E
:104550002BF8042002F028F8002002F025F8C320F0
:1045600002F02EF83C2002F01FF8002002F01CF8A8
:104570003A2002F019F8002002F016F8392002F073
:1045800013F8002002F010F8372002F00DF8002098
:1045900002F00AF83C2002F007F8002002F004F8CC
:1045A000362002F001F8002001F0FEFF322001F079
:1045B000FBFF002001F0F8FF2F2001F0F5FF0020A5
:1045C00001F0F2FF2C2001F0EFFF002001F0ECFFE2
:1045D000292001F0E9FF002001F0E6FF262001F08C
:1045E000E3FF002001F0E0FF242001F0DDFF0020C8
:1045F00001F0DAFF242001F0D7FF002001F0D4FF02
:10460000232001F0D1FF002001F0CEFF3C2001F07B
:10461000CBFF002001F0C8FF362001F0C5FF0020CD
:1046200001F0C2FF322001F0BFFF002001F0BCFF0B
:104630002F2001F0B9FF002001F0B6FF2C2001F07F
:10464000B3FF002001F0B0FF292001F0ADFF0020F2
:1046500001F0AAFF262001F0A7FF002001F0A4FF2F
:10466000242001F0A1FF002001F09EFF242001F092
:104670009BFF002001F098FF232001F095FF002010
:1046800001F092FFC42001F09BFF622001F08CFF3B
:10469000002001F089FF052001F086FF002001F0D5
:1046A00083FF842001F080FF002001F07DFFF020D7
:1046B00001F07AFF002001F077FF182001F074FF6D
:1046C000002001F071FFA42001F06EFF002001F036
:1046D0006BFF182001F068FF002001F065FF5020FB
:1046E00001F062FF002001F05FFF0C2001F05CFF91
:1046F000002001F059FF172001F056FF002001F0C3
:1047000053FF952001F050FF002001F04DFFF320F2
:1047100001F04AFF002001F047FFE62001F044FFCE
:10472000002001F041FFC52001F04AFF322001F0D6
:104730003BFF002001F038FF442001F035FF00204E
:1047400001F032FF652001F02FFF002001F02CFF67
:10475000762001F029FF002001F026FF882001F0DB
:1047600023FF002001F020FFC62001F029FF2020B8
:1047700001F01AFF002001F017FF172001F014FFCD
:10478000002001F011FF012001F00EFF002001F0D8
:104790000BFFC72001F014FF002001F005FF0020EF
:1047A00001F002FF002001F0FFFE002001F0FCFEFE
:1047B000C82001F005FF002001F0F6FE002001F006
:1047C000F3FE002001F0F0FE002001F0EDFEC92014
:1047D00001F0F6FE002001F0E7FE002001F0E4FE0B
:1047E000002001F0E1FE002001F0DEFE002001F0DB
:1047F000DBFE002001F0D8FE002001F0D5FE0020F5
:1048000001F0D2FE002001F0CFFE002001F0CCFE2E
:10481000002001F0C9FE002001F0C6FE002001F0DA
:10482000C3FE002001F0C0FE002001F0BDFE00200C
:1048300001F0BAFEE02001F0C3FE162001F0B4FE44
:10484000002001F0B1FE1C2001F0AEFE002001F0BE
:10485000ABFE212001F0A8FE002001F0A5FE3620CD
:1048600001F0A2FE002001F09FFE462001F09CFE18
:10487000002001F099FE522001F096FE002001F088
:1048800093FE642001F090FE002001F08DFE7A205E
:1048900001F08AFE002001F087FE8B2001F084FEEB
:1048A000002001F081FE992001F07EFE002001F041
:1048B0007BFEA82001F078FE002001F075FEB920F3
:1048C00001F072FE002001F06FFEC42001F06CFECA
:1048D000002001F069FECA2001F066FE002001F010
:1048E00063FED22001F060FE002001F05DFED920C1
:1048F00001F05AFE002001F057FEE02001F054FEC6
:10490000002001F051FEF32001F04EFE002001F0E6
:104910004BFEE12001F054FE162001F045FE002080
:1049200001F042FE1C2001F03FFE002001F03CFEA1
:10493000222001F039FE002001F036FE362001F081
:1049400033FE002001F030FE452001F02DFE002056
:1049500001F02AFE522001F027FE002001F024FE83
:10496000642001F021FE002001F01EFE7A2001F0FB
:104970001BFE002001F018FE8B2001F015FE002028
:1049800001F012FE992001F00FFE002001F00CFE54
:10499000A82001F009FE002001F006FEB92001F078
:1049A00003FE002001F000FEC42001F0FDFD002008
:1049B00001F0FAFDCA2001F0F7FD002001F0F4FD3E
:1049C000D22001F0F1FD002001F0EEFDD82001F031
:1049D000EBFD002001F0E8FDE02001F0E5FD002006
:1049E00001F0E2FDF32001F0DFFD002001F0DCFD2D
:1049F000E22001F0E5FD052001F0D6FD002001F0E8
:104A0000D3FD0B2001F0D0FD002001F0CDFD1B20D7
:104A100001F0CAFD002001F0C7FD342001F0C4FD03
:104A2000002001F0C1FD442001F0BEFD002001F096
:104A3000BBFD4F2001F0B8FD002001F0B5FD612065
:104A400001F0B2FD002001F0AFFD792001F0ACFDD6
:104A5000002001F0A9FD882001F0A6FD002001F052
:104A6000A3FD972001F0A0FD002001F09DFDA620F0
:104A700001F09AFD002001F097FDB72001F094FDB0
:104A8000002001F091FDC22001F08EFD002001F018
:104A90008BFDC72001F088FD002001F085FDD120AD
:104AA00001F082FD002001F07FFDD62001F07CFDA9
:104AB000002001F079FDDD2001F076FD002001F0FD
:104AC00073FDF32001F070FD002001F06DFDE32087
:104AD00001F076FD052001F067FD00E00AE300200B
:104AE00001F062FD0A2001F05FFD002001F05CFD95
:104AF0001C2001F059FD002001F056FD332001F08B
:104B000053FD002001F050FD442001F04DFD002038
:104B100001F04AFD502001F047FD002001F044FD66
:104B2000622001F041FD002001F03EFD782001F0FF
:104B30003BFD002001F038FD882001F035FD00200C
:104B400001F032FD972001F02FFD002001F02CFD37
:104B5000A62001F029FD002001F026FDB72001F07C
:104B600023FD002001F020FDC22001F01DFD0020EA
:104B700001F01AFDC72001F017FD002001F014FD1F
:104B8000D12001F011FD002001F00EFDD52001F033
:104B90000BFD002001F008FDDD2001F005FD0020E7
:104BA00001F002FDF32001F0FFFC002001F0FCFC0D
:104BB000E42001F005FD012001F0F6FC002001F0E9
:104BC000F3FC012001F0F0FC002001F0EDFC0220DC
:104BD00001F0EAFC002001F0E7FC2A2001F0E4FCEF
:104BE000002001F0E1FC3C2001F0DEFC002001F09F
:104BF000DBFC4B2001F0D8FC002001F0D5FC5D204F
:104C000001F0D2FC002001F0CFFC742001F0CCFCBC
:104C1000002001F0C9FC842001F0C6FC002001F056
:104C2000C3FC932001F0C0FC002001F0BDFCA220D9
:104C300001F0BAFC002001F0B7FCB32001F0B4FC95
:104C4000002001F0B1FCBE2001F0AEFC002001F01C
:104C5000ABFCC42001F0A8FC002001F0A5FCCD2095
:104C600001F0A2FC002001F09FFCD32001F09CFC8D
:104C7000002001F099FCDD2001F096FC002001F0FD
:104C800093FCF32001F090FC002001F08DFCE52066
:104C900001F096FC002001F087FC002001F084FC6C
:104CA000002001F081FC002001F07EFC022001F0D8
:104CB0007BFC002001F078FC292001F075FC00202D
:104CC00001F072FC3C2001F06FFC002001F06CFC54
:104CD0004B2001F069FC002001F066FC5D2001F032
:104CE00063FC002001F060FC742001F05DFC0020FA
:104CF00001F05AFC842001F057FC002001F054FC24
:104D0000932001F051FC002001F04EFCA22001F0A4
:104D10004BFC002001F048FCB32001F045FC0020D2
:104D200001F042FCBE2001F03FFC002001F03CFC01
:104D3000C42001F039FC002001F036FCCD2001F048
:104D400033FC002001F030FCD32001F02DFC0020CA
:104D500001F02AFCDC2001F027FC002001F024FCFB
:104D6000F32001F021FC002001F01EFCE62001F000
:104D700027FC112001F018FC002001F015FC342064
:104D800001F012FC002001F00FFC562001F00CFC99
:104D9000002001F009FC762001F006FC002001F063
:104DA00003FC772001F000FC002001F0FDFB6620F1
:104DB00001F0FAFB002001F0F7FB882001F0F4FB82
:104DC000002001F0F1FB992001F0EEFB002001F042
:104DD000EBFBBB2001F0E8FB002001F0E5FB992094
:104DE00001F0E2FB002001F0DFFB662001F0DCFBBC
:104DF000002001F0D9FB552001F0D6FB002001F086
:104E0000D3FB552001F0D0FB002001F0CDFB452065
:104E100001F0CAFB002001F0C7FB432001F0C4FBF6
:104E2000002001F0C1FB442001F0BEFB002001F096
:104E3000BBFBE72001F0C4FB322001F0B5FB0020F2
:104E400001F0B2FB552001F0AFFB002001F0ACFBFC
:104E5000762001F0A9FB002001F0A6FB662001F0FE
:104E6000A3FB002001F0A0FB672001F09DFB0020C8
:104E700001F09AFB672001F097FB002001F094FB02
:104E8000872001F091FB002001F08EFB992001F0BA
:104E90008BFB002001F088FBBB2001F085FB00208C
:104EA00001F082FB992001F07FFB002001F07CFBE8
:104EB000772001F079FB002001F076FB442001F01F
:104EC00073FB002001F070FB562001F06DFB002009
:104ED00001F06AFB232001F067FB002001F064FB76
:104EE000332001F061FB002001F05EFB452001F062
:104EF0005BFB002001F058FBE82001F061FB002083
:104F000001F052FB002001F04FFB992001F04CFB17
:104F1000002001F049FB872001F046FB002001F052
:104F200043FB882001F040FB002001F03DFB77208F
:104F300001F03AFB002001F037FB662001F034FB62
:104F4000002001F031FB882001F02EFB002001F051
:104F50002BFBAA2001F028FB002001F025FBBB2041
:104F600001F022FB002001F01FFB992001F01CFB47
:104F7000002001F019FB662001F016FB002001F073
:104F800013FB552001F010FB002001F00DFB552014
:104F900001F00AFB002001F007FB442001F004FBB4
:104FA000002001F001FB442001F0FEFA002001F096
:104FB000FBFA552001F0F8FA002001F0F5FAE9209B
:104FC00001F0FEFAAA2001F0EFFA002001F0ECFA5D
:104FD000002001F0E9FA002001F0E6FA002001F0DB
:104FE000EFFAAA2001F0E0FACF2001F0E9FA002060
:104FF00001F0DAFA002001F0D7FA002001F0D4FA2B
:10500000002001F0D1FA002001F0CEFA002001F0DA
:10501000CBFA002001F0C8FA002001F0C5FA002008
:1050200001F0C2FA002001F0BFFA002001F0BCFA42
:10503000002001F0B9FA002001F0B6FA002001F0DA
:10504000B3FA002001F0B0FA002001F0ADFA002020
:1050500001F0AAFAF02001F0B3FA002001F0A4FA5E
:10506000502001F0A1FA002001F09EFA002001F08A
:105070009BFA002001F098FAF32001F0A1FA002039
:1050800001F092FAF92001F09BFA062001F08CFA67
:10509000102001F089FA292001F086FA002001F0A1
:1050A00083FA3A2001F08CFA552001F07DFA1120A4
:1050B00001F086FA642002F017FB292001F080FA43
:1050C000352001F07DFA002001F06EFA512001F048
:1050D00077FAFF2001F068FA532001F071FA2C20D2
:1050E00001F062FA552001F06BFA822001F05CFABF
:1050F0002C20FDE3A0427DD14FF47043552118468A
:1051000001F074FA4FF20107AA21384601F06EFA55
:105110005221781C01F06AFA0821B81C01F066FAE5
:105120000121F81C01F062FA0D214FF4304001F02A
:105130005DFA0D214BF2010001F058FA0D214BF2FE
:10514000020001F053FA34214FF4364001F04EFAD8
:1051500034214BF2016001F049FA34214BF2026034
:1051600001F044FA0D214FF4314001F03FFA0D21D6
:105170004BF2011001F03AFA0D214BF2021001F04E
:1051800035FA34214FF4374001F030FA34214BF234
:10519000017001F02BFA34214BF2027001F026FA73
:1051A00000214FF4324001F021FA00214BF201209E
:1051B00001F01CFA00214BF2022001F017FA242121
:1051C0004FF4384001F012FA24214BF6010001F0AF
:1051D0000DFA24214BF6020001F008FA01214FF4E8
:1051E0003F4001F003FA0F214FF4334001F0FEF984
:1051F0000F2100E0FEE34BF2013001F0F7F90F213F
:105200004BF2023001F0F2F934214FF4394001F051
:10521000EDF934214BF6011001F0E8F934214BF699
:10522000021001F0E3F908214FF4354001F0DEF9F6
:1052300008214BF2015001F0D9F908214BF202503C
:1052400001F0D4F903214FF4424001F0CFF92421B9
:105250004FF43A4001F0CAF924214BF6012001F045
:10526000C5F924214BF6022001F0C0F900214FF4CA
:105270003C4001F0BBF978214BF6014001F0B6F952
:1052800000214BF6024001F0B1F900214FF43D40FE
:1052900001F0ACF978214BF6015001F0A7F900219B
:1052A0004BF6025001F0A2F900214FF43E4001F00C
:1052B0009DF964214BF6016001F098F900214FF44B
:1052C000514001F093F933214DF2011001F08EF9B4
:1052D00000214DF2021001F089F934214DF2031042
:1052E00001F084F900214DF2041001F07FF93A2118
:1052F0004DF2051001F07AF900214DF2061001F08F
:1053000075F94A214DF2071001F070F900214DF2B4
:10531000081001F06BF95C214DF2091001F066F9FB
:1053200000214DF20A1001F061F981214DF20B10BC
:1053300001F05CF900214DF20C1001F057F9A621A3
:105340004DF20D1001F052F900214DF20E1001F056
:105350004DF9E5214DF20F1001F048F901214DF210
:10536000101001F043F913214DF2111001F03EF934
:1053700001214DF2121001F039F954214DF21310B0
:1053800001F034F901214DF2141001F02FF98221BE
:105390004DF2151001F02AF901214DF2161001F01D
:1053A00025F9CA214DF2171001F020F902214DF222
:1053B000181001F01BF900214DF2191001F016F937
:1053C00002214DF21A1001F011F901214DF21B10CA
:1053D00001F00CF902214DF21C1001F007F9342103
:1053E0004DF21D1001F002F902214DF21E1001F0E4
:1053F000FDF867214DF21F1001F0F8F802214DF27F
:10540000201001F0F3F884214DF2211001F0EEF8A4
:1054100002214DF2221001F0E9F8A4214DF22310EF
:1054200001F0E4F802214DF2241001F0DFF8B72179
:105430004DF2251001F0DAF802214DF2261001F0AC
:10544000D5F8CF214DF2271001F0D0F802214DF20E
:10545000281001F0CBF8DE214DF2291001F0C6F83A
:1054600002214DF22A1001F0C1F8F2214DF22B1069
:1054700001F0BCF802214DF22C1001F0B7F8FE212A
:105480004DF22D1001F0B2F803214DF22E1001F073
:10549000ADF810214DF22F1001F0A8F803214DF2C4
:1054A000301001F0A3F833214DF2311001F09EF8D5
:1054B00003214DF2321001F099F86D214DF23310B5
:1054C00001F094F800214FF4524001F08FF833219D
:1054D0004DF2012001F08AF800214DF2022001F086
:1054E00085F834214DF2032001F080F800214DF2BF
:1054F000042001F07BF83A214DF2052001F076F806
:1055000000214DF2062001F071F84A214DF20720EA
:1055100001F06CF800214DF2082001F067F85C21E1
:105520004DF2092001F062F800214DF20A2001F04D
:105530005DF881214DF20B2001F058F800214DF269
:105540000C2001F053F8A6214DF20D2001F04EF889
:1055500000214DF20E2001F049F8E5214DF20F2017
:1055600001F044F801214DF2102001F03FF8132121
:105570004DF2112001F03AF801214DF2122001F014
:1055800035F854214DF2132001F030F801214DF28D
:10559000142001F02BF882214DF2152001F026F89D
:1055A00001214DF2162001F021F8CA214DF21720F9
:1055B00001F01CF802214DF2182001F017F800212B
:1055C0004DF2192001F012F802214DF21A2001F0DB
:1055D0000DF801214DF21B2001F008F802214DF2D7
:1055E0001C2001F003F834214DF21D2000F0FEFFD5
:1055F00002214DF21E2000F0F9FF67214DF21F201D
:1056000000F0F4FF02214DF2202000F0EFFF842192
:105610004DF2212000F0EAFF02214DF2222000F09D
:10562000E5FFA4214DF2232000F0E0FF02214DF21E
:10563000242000F0DBFFB7214DF2252000F0D6FF3B
:1056400002214DF2262000F0D1FFCF214DF227207C
:1056500000F0CCFF02214DF2282000F0C7FFDE2130
:105660004DF2292000F0C2FF02214DF22A2000F065
:10567000BDFFF2214DF22B2000F0B8FF02214DF2C8
:105680002C2000F0B3FFFE214DF22D2000F0AEFFE4
:1056900003214DF22E2000F0A9FF10214DF22F2002
:1056A00000F0A4FF03214DF2302000F09FFF3321D2
:1056B0004DF2312000F09AFF03214DF2322000F02C
:1056C00095FF6D214DF2332000F090FF00214FF443
:1056D000534000F08BFF33214DF2013000F086FF84
:1056E00000214DF2023000F081FF34214DF20330F1
:1056F00000F07CFF00214DF2043000F077FF3A21EA
:105700004DF2053000F072FF00214DF2063000F03E
:105710006DFF4A214DF2073000F068FF00214DF285
:10572000083000F063FF5C214DF2093000F05EFFAD
:1057300000214DF20A3000F059FF81214DF20B306B
:1057400000F054FF00214DF20C3000F04FFFA62175
:105750004DF20D3000F04AFF00214DF20E3000F006
:1057600045FFE5214DF20F3000F040FF01214DF2E1
:10577000103000F03BFF13214DF2113000F036FFE6
:1057800001214DF2123000F031FF54214DF213305F
:1057900000F02CFF01214DF2143000F027FF822190
:1057A0004DF2153000F022FF01214DF2163000F0CD
:1057B0001DFFCA214DF2173000F018FF02214DF2F3
:1057C000183000F013FF00214DF2193000F00EFFE9
:1057D00002214DF21A3000F009FF01214DF21B3079
:1057E00000F004FF02214DF21C3000F0FFFE3421D6
:1057F0004DF21D3000F0FAFE02214DF21E3000F095
:10580000F5FE67214DF21F3000F0F0FE02214DF24F
:10581000203000F0EBFE84214DF2213000F0E6FE56
:1058200002214DF2223000F0E1FEA4214DF223309E
:1058300000F0DCFE02214DF2243000F0D7FEB7214B
:105840004DF2253000F0D2FE02214DF2263000F05C
:10585000CDFECF214DF2273000F0C8FE02214DF2DF
:10586000283000F0C3FEDE214DF2293000F0BEFEEC
:1058700002214DF22A3000F0B9FEF2214DF22B3018
:1058800000F0B4FE02214DF22C3000F0AFFEFE21FC
:105890004DF22D3000F0AAFE03214DF22E3000F023
:1058A000A5FE10214DF22F3000F0A0FE03214DF295
:1058B000303000F09BFE33214DF2313000F096FE87
:1058C00003214DF2323000F091FE6D214DF2333064
:1058D00000F08CFE00214FF4544000F087FE33218D
:1058E0004DF2014000F082FE00214DF2024000E046
:1058F0007CE300F07BFE34214DF2034000F076FEA5
:1059000000214DF2044000F071FE3A214DF20540B5
:1059100000F06CFE00214DF2064000F067FE4A21C7
:105920004DF2074000F062FE00214DF2084000F009
:105930005DFE5C214DF2094000F058FE00214DF261
:105940000A4000F053FE81214DF20B4000F04EFE64
:1059500000214DF20C4000F049FEA6214DF20D4011
:1059600000F044FE00214DF20E4000F03FFEE52124
:105970004DF20F4000F03AFE01214DF2104000F0D0
:1059800035FE13214DF2114000F030FE01214DF2A1
:10599000124000F02BFE54214DF2134000F026FE81
:1059A00001214DF2144000F021FE82214DF21540FC
:1059B00000F01CFE01214DF2164000F017FECA2136
:1059C0004DF2174000F012FE02214DF2184000F097
:1059D0000DFE00214DF2194000F008FE02214DF2AB
:1059E0001A4000F003FE01214DF21B4000F0FEFDC5
:1059F000022100E0FDE24DF21C4000F0F7FD3421F1
:105A00004DF21D4000F0F2FD02214DF21E4000F06B
:105A1000EDFD67214DF21F4000F0E8FD02214DF23F
:105A2000204000F0E3FD84214DF2214000F0DEFD36
:105A300002214DF2224000F0D9FDA4214DF2234075
:105A400000F0D4FD02214DF2244000F0CFFDB7213B
:105A50004DF2254000F0CAFD02214DF2264000F033
:105A6000C5FDCF214DF2274000F0C0FD02214DF2CF
:105A7000284000F0BBFDDE214DF2294000F0B6FDCC
:105A800002214DF22A4000F0B1FDF2214DF22B40EF
:105A900000F0ACFD02214DF22C4000F0A7FDFE21EC
:105AA0004DF22D4000F0A2FD03214DF22E4000F0FA
:105AB0009DFD10214DF22F4000F098FD03214DF285
:105AC000304000F093FD33214DF2314000F08EFD67
:105AD00003214DF2324000F089FD6D214DF233403B
